{
  "contractName": "Storage",
  "abi": [
    {
      "constant": true,
      "inputs": [],
      "name": "data",
      "outputs": [
        {
          "internalType": "string",
          "name": "",
          "type": "string"
        }
      ],
      "payable": false,
      "stateMutability": "view",
      "type": "function"
    },
    {
      "constant": false,
      "inputs": [
        {
          "internalType": "string",
          "name": "_data",
          "type": "string"
        }
      ],
      "name": "setData",
      "outputs": [
        {
          "internalType": "bool",
          "name": "",
          "type": "bool"
        }
      ],
      "payable": false,
      "stateMutability": "nonpayable",
      "type": "function"
    },
    {
      "constant": false,
      "inputs": [],
      "name": "getData",
      "outputs": [
        {
          "internalType": "string",
          "name": "",
          "type": "string"
        }
      ],
      "payable": false,
      "stateMutability": "nonpayable",
      "type": "function"
    }
  ],
  "bytecode": "0x608060405234801561001057600080fd5b50610395806100206000396000f3fe608060405234801561001057600080fd5b50600436106100415760003560e01c80633bc5de301461004657806347064d6a146100c357806373d4a13a1461017d575b600080fd5b61004e610185565b6040805160208082528351818301528351919283929083019185019080838360005b83811015610088578181015183820152602001610070565b50505050905090810190601f1680156100b55780820380516001836020036101000a031916815260200191505b509250505060405180910390f35b610169600480360360208110156100d957600080fd5b8101906020810181356401000000008111156100f457600080fd5b82018360208201111561010657600080fd5b8035906020019184600183028401116401000000008311171561012857600080fd5b91908080601f01602080910402602001604051908101604052809392919081815260200183838082843760009201919091525092955061021c945050505050565b604080519115158252519081900360200190f35b61004e61023a565b60008054604080516020601f60026000196101006001881615020190951694909404938401819004810282018101909252828152606093909290918301828280156102115780601f106101e657610100808354040283529160200191610211565b820191906000526020600020905b8154815290600101906020018083116101f457829003601f168201915b505050505090505b90565b805160009061023190829060208501906102c8565b50600192915050565b6000805460408051602060026001851615610100026000190190941693909304601f810184900484028201840190925281815292918301828280156102c05780601f10610295576101008083540402835291602001916102c0565b820191906000526020600020905b8154815290600101906020018083116102a357829003601f168201915b505050505081565b828054600181600116156101000203166002900490600052602060002090601f016020900481019282601f1061030957805160ff1916838001178555610336565b82800160010185558215610336579182015b8281111561033657825182559160200191906001019061031b565b50610342929150610346565b5090565b61021991905b80821115610342576000815560010161034c56fea265627a7a7231582031e268d4e9a9231d4d02ce9eb1b7854481bcd30b8a9f37478c48396b3e73bef964736f6c63430005110032",
  "source": "pragma solidity ^0.5.1;\n\ncontract Storage {\n    string public data;\n\n    function setData(string memory _data) public returns(bool){\n        data = _data;\n        return true;\n    }\n\n    function getData() public returns(string memory){\n        return data;\n    }\n}",
  "sourcePath": "/Users/ayushgupta/Downloads/Development/Personal/proxy-clone-factory/contracts/Storage.sol",
  "compiler": {
    "name": "solc",
    "version": "0.5.17+commit.d19bba13.Emscripten.clang"
  },
  "schemaVersion": "3.3.2",
  "updatedAt": "2020-12-05T19:56:18.405Z",
  "networkType": "ethereum",
  "devdoc": {
    "methods": {}
  },
  "userdoc": {
    "methods": {}
  }
}