{
  "contractName": "StorageFactory",
  "abi": [
    {
      "inputs": [
        {
          "internalType": "address",
          "name": "_implementation",
          "type": "address"
        }
      ],
      "payable": false,
      "stateMutability": "nonpayable",
      "type": "constructor"
    },
    {
      "constant": true,
      "inputs": [],
      "name": "admin",
      "outputs": [
        {
          "internalType": "address",
          "name": "",
          "type": "address"
        }
      ],
      "payable": false,
      "stateMutability": "view",
      "type": "function"
    },
    {
      "constant": true,
      "inputs": [
        {
          "internalType": "uint256",
          "name": "",
          "type": "uint256"
        }
      ],
      "name": "cloneContracts",
      "outputs": [
        {
          "internalType": "address",
          "name": "",
          "type": "address"
        }
      ],
      "payable": false,
      "stateMutability": "view",
      "type": "function"
    },
    {
      "constant": true,
      "inputs": [],
      "name": "implementation",
      "outputs": [
        {
          "internalType": "address",
          "name": "",
          "type": "address"
        }
      ],
      "payable": false,
      "stateMutability": "view",
      "type": "function"
    },
    {
      "constant": false,
      "inputs": [],
      "name": "createStorage",
      "outputs": [],
      "payable": false,
      "stateMutability": "nonpayable",
      "type": "function"
    },
    {
      "constant": true,
      "inputs": [
        {
          "internalType": "uint256",
          "name": "i",
          "type": "uint256"
        }
      ],
      "name": "getAddress",
      "outputs": [
        {
          "internalType": "address",
          "name": "cloneAddress",
          "type": "address"
        }
      ],
      "payable": false,
      "stateMutability": "view",
      "type": "function"
    }
  ],
  "bytecode": "0x608060405234801561001057600080fd5b506040516102f73803806102f78339818101604052602081101561003357600080fd5b5051600080546001600160a01b039092166001600160a01b0319928316179055600180549091163317905561028a8061006d6000396000f3fe608060405234801561001057600080fd5b50600436106100575760003560e01c8063315f1a2e1461005c5780635c60da1b14610095578063b93f9b0a1461009d578063f851a440146100ba578063fb971d01146100c2575b600080fd5b6100796004803603602081101561007257600080fd5b50356100cc565b604080516001600160a01b039092168252519081900360200190f35b6100796100f3565b610079600480360360208110156100b357600080fd5b5035610102565b61007961012c565b6100ca61013b565b005b600281815481106100d957fe5b6000918252602090912001546001600160a01b0316905081565b6000546001600160a01b031681565b60006002828154811061011157fe5b6000918252602090912001546001600160a01b031692915050565b6001546001600160a01b031681565b6001546001600160a01b0316331461019a576040805162461bcd60e51b815260206004820152601d60248201527f4f6e6c792061646d696e2063616e206372656174652073746f72616765000000604482015290519081900360640190fd5b600080546101b0906001600160a01b0316610203565b600280546001810182556000919091527f405787fa12a823e0f2b7631cc41b3ba8828b3321ca811111fa75cd3aa3bb5ace0180546001600160a01b0319166001600160a01b039290921691909117905550565b6000808260601b9050604051733d602d80600a3d3981f3363d3d373d3d3d363d7360601b81528160148201526e5af43d82803e903d91602b57fd5bf360881b60288201526037816000f094935050505056fea265627a7a72315820d3039bf623577e7db45c266ba8dc7fd0317a64bee86af94077ac58e0d400edfd64736f6c63430005110032",
  "source": "pragma solidity ^0.5.1;\n\nimport './Storage.sol';\nimport './CloneFactory.sol';\n\ncontract StorageFactory is CloneFactory {\n\n    address public implementation;\n    address public admin;\n    address[] public cloneContracts;\n\n    constructor(address _implementation) public {\n        implementation = _implementation;\n        admin = msg.sender;\n    }\n\n    function createStorage() public {\n        require(msg.sender == admin, \"Only admin can create storage\");\n        address clone = createClone(implementation);\n        // Storage(clone).init(myArg);\n        cloneContracts.push(clone);\n    }\n\n    function getAddress(uint256 i) view external returns (address cloneAddress){\n        return cloneContracts[i];\n    }\n}",
  "sourcePath": "/Users/ayushgupta/Downloads/Development/Personal/proxy-clone-factory/contracts/StorageFactory.sol",
  "compiler": {
    "name": "solc",
    "version": "0.5.17+commit.d19bba13.Emscripten.clang"
  },
  "schemaVersion": "3.3.2",
  "updatedAt": "2020-12-05T19:56:18.389Z",
  "networkType": "ethereum",
  "devdoc": {
    "methods": {}
  },
  "userdoc": {
    "methods": {}
  }
}